:020000040800F2
:100000004004002025170008990200089B02000800
:100010009F020008A3020008A702000800000000D9
:10002000000000000000000000000000AB0200081B
:10003000AD02000800000000AF0200083D170008F4
:100040003F1700083F1700083F1700083F17000838
:100050003F1700083F1700083F1700083F17000828
:100060003F1700083F1700083F1700083F17000818
:100070003F1700083F1700083F1700083F17000808
:100080003F1700083F1700083F1700083F170008F8
:100090003F1700083F1700083F1700083F170008E8
:1000A0003F1700083F1700083F1700083F170008D8
:1000B0003F1700083F1700083F1700083F170008C8
:1000C0003F1700083F1700083F1700083F170008B8
:1000D0003F170008790400083F1700083F17000881
:1000E0003F1700083F1700083F1700083F17000898
:1000F0003F1700083F1700083F1700083F17000888
:100100003F1700083F1700083F1700083F17000877
:100110003F1700083F1700083F1700083F17000867
:100120003F1700083F1700083F1700083F17000857
:100130003F1700083F1700083F1700083F17000847
:100140003F1700083F1700083F1700083F17000837
:100150003F1700083F1700083F1700083F17000827
:100160003F1700083F1700083F1700083F17000817
:100170003F1700083F1700083F1700083F17000807
:100180003F1700083F170008DFF80CD001F0F2FA23
:10019000004800479D0100084004002008B501F018
:1001A00027FA002500264FF4A06000F06FF94FF405
:1001B000E13000F00FF900F0E1F813202C4B2D4A4C
:1001C000510600902C4800F081F81427002416E016
:1001D000BD420BDB26B10A202549085500250CE05D
:1001E0000D2023490855701CC6B206E0002623489E
:1001F000405D1F490855681CC5B2601C84B2132CB1
:10020000E6DB34E01EA001F0C7FA01228021194884
:10021000001F00F020FF1321174800F096F81A483D
:100220000068401C184A0146106018A001F0B4FA9A
:100230004FF47A7000F03CF80BE04FF020510E487C
:1002400001F0CDF828B14FF020510B4801F0E3F850
:1002500000E0F2E700BF601C84B20A2000F028F83A
:10026000142C04D140210B4800F06AFA0024C9E79D
:100270002C00002004100140B86402402C19000832
:100280000D0A0D0A0000000000000020B5DA256408
:10029000B4CE000000000240704700BFFEE700BF80
:1002A000FEE700BFFEE700BFFEE7704770477047FC
:1002B00010B5002107E04AF2104200BF131EA2F160
:1002C0000102FBD1491C8142F5D310BD2DE9F0415B
:1002D00090B004460D4617461E46DDF85880264865
:1002E000844204D90121880500F0F4FB03E00121D8
:1002F000480500F0EFFB204600F038FF00BF204625
:1003000001F05DF80028FAD101950297039640208C
:100310000490CDF81480002006904FF48060079080
:100320000020089009900A904FF480300B90002034
:100330000C9003200D9000200E900F9001A92046F4
:1003400000F0B6FF10B0BDE8F08170B504460D4670
:100350000021204600F0E6FF00BF204601F02FF804
:100360000028FAD12946204600F0FDFF0121204651
:1003700000F0D8FF70BD0000006402401CB50121F0
:10038000084600F0A7FBF020009001208DF8040043
:1003900000208DF806008DF8050001208DF807007B
:1003A0006946024800F050F91CBD00000000024000
:1003B00000BF704770B504460D4600BF402131486C
:1003C00000F077FE0028F9D0E1B22E4800F0C1FD20
:1003D000204670BD10B588B004460121084600F0E3
:1003E00079FB0121102000F0B9FB072209212648E2
:1003F00000F0B5F907220A21234800F0B0F94FF4C4
:10040000C060069002208DF81C008DF81D000020B1
:100410008DF81E0001208DF81F0006A91A4800F073
:1004200013F902940020ADF80C00ADF80E00ADF801
:100430001000ADF814000C20ADF8120002A911480C
:1004400000F0D4FC012240F225510E4800F00CFED1
:1004500025208DF8040002208DF805008DF8060097
:1004600001208DF8070001A800F015F801210548CA
:1004700000F044FD08B010BD10B54FF47A70FFF7DE
:1004800017FF10BD00100140000002403249014337
:10049000324A1160704770B5002100230F22C478E2
:1004A0001CB32E4C246804F4E064C4F5E064C4F387
:1004B0000721C1F10404E3B20A4144789C40E1B24F
:1004C0008478144021430C07210E254C0578615592
:1004D000047804F01F050124AC4005786D11AD00CF
:1004E00005F1E025C5F8004109E0047804F01F0596
:1004F0000124AC401B4D0678761145F8264070BDAE
:10050000194A0A400243154B1B1F1A60704739B144
:10051000124A121D12680243104B1B1D1A6006E09E
:100520000E4A121D126882430C4B1B1D1A60704745
:10053000042808D14FF0E021096941F004014FF08F
:10054000E022116107E04FF0E021096921F0040188
:100550004FF0E022116170470000FA050CED00E059
:1005600000E400E080E100E080FFFF1F10B50446DA
:100570008C48844208D10121084600F000FB00218C
:10058000012000F0FCFA5EE08748844208D1012196
:10059000022000F0F4FA0021022000F0F0FA52E00C
:1005A0008248844208D10121042000F0E8FA0021A9
:1005B000042000F0E4FA46E07D48844208D101219D
:1005C000082000F0DCFA0021082000F0D8FA3AE018
:1005D0007848844208D10121102000F0D0FA00218F
:1005E000102000F0CCFA2EE07348844208D101219B
:1005F000202000F0C4FA0021202000F0C0FA22E000
:100600006E48844208D10121402000F0B8FA002150
:10061000402000F0B4FA16E06948844208D1012174
:10062000802000F0ACFA0021802000F0A8FA0AE057
:100630006448844207D10121801500F0A0FA00210E
:10064000A01500F09CFA10BDF0B50A460021002369
:10065000002400BF3DE0012505FA01F3156805EA15
:1006600003049C4234D105684F000326BE40B543C5
:10067000056015794E00B54006683543056015796B
:10068000012D02D01579022D16D185684F00032661
:10069000BE40B543856055794E00B5408668354308
:1006A0008560456801268E40B5434560456896796A
:1006B0008E40B6B235434560C5684F000326BE4044
:1006C000B543C560D5794E00B540C6683543C560B1
:1006D000491C1029BFD3F0BD4FF6FF710160002106
:1006E000017141718171C171704708B54FF4803259
:1006F0000092009A0A430092009AC261C161009A76
:10070000C261C2690092C269009208BD024600201F
:1007100013690B400BB1012000E000207047014637
:10072000086980B270470246002053690B400BB144
:10073000012000E0002070470146486980B2704700
:1007400001837047418370470AB1018300E0418310
:1007500070474161704742694A4042617047F0B555
:10076000002300244D07ED0E02FA05F3CE1000F130
:10077000200555F826504E07F70E0F26BE40B5430C
:10078000CF1000F1200646F82750CE1000F12005CA
:1007900055F8265045EA0304CE1000F1200545F82F
:1007A0002640F0BD00000240000402400008024064
:1007B000000C0240001002400014024000180240E9
:1007C000001C024000200240FA48006840F001008E
:1007D000F84908600020F74908310860F5480068CA
:1007E000F5490840F3490860F448091D0860081FEE
:1007F000006820F48020091F08600020ED490C31BA
:10080000086070470021EB4A921C11701146087075
:10081000704710B501460022002300204A11012A2A
:1008200002D1E44C236808E0022A03D1E14C703481
:10083000236802E0DF4C7434236801F01F020124B6
:1008400094401C400CB1012000E0002010BD38B5E0
:10085000002000900024002500BF3120FFF7D9FFC1
:1008600005460098401C00900098B0F5A06F01D09C
:10087000002DF2D03120FFF7CCFF08B1012400E0B9
:100880000024204638BD01460020CA4A106820F0E6
:10089000F80040EAC10010607047C949086070471D
:1008A0000021C44A703211701170012802D004284E
:1008B0000AD104E00121BF4A7032117005E0052120
:1008C000BC4A7032117000E000BF00BF7047BD49E4
:1008D0000860704770B5049C41EA82150126C6EB9A
:1008E000530645EA0645054345EA0465B14E361D03
:1008F000356070BDB24908667047820142EA0172F4
:10090000AC4B84331A607047AD4988667047AC4978
:10091000C864704702460020A64B0833186820F0D0
:10092000EC6042EA01031843A24B08331860704799
:10093000024600209F4B0833186820F0784042EAB6
:10094000010318439B4B0833186070470146002091
:10095000984A0832106820F003000843106070477E
:1009600094480830006800F00C00704701460020F1
:10097000904A0832106820F0F00008431060704779
:10098000014600208B4A0832106820F4E0500843EA
:100990001060704701460020864A0832106820F433
:1009A000604040EAC10010607047F0B500210022AD
:1009B00000240225002602237E4F08373F6807F0F7
:1009C0000C0121B1042905D0082937D105E07E4F5B
:1009D000076036E07D4F076033E0764F3F1D3F688C
:1009E000C7F38056734F3F1D3F6807F03F036EB15A
:1009F000764FB7FBF3F7DFF8BCC10CF1040CDCF861
:100A000000C0CCF3881C07FB0CF40CE06E4FB7FB66
:100A1000F3F7DFF8A0C10CF1040CDCF800C0CCF354
:100A2000881C07FB0CF4634F3F1D3F68C7F3014769
:100A30007F1C7D00B4FBF5F7076002E0624F0760A2
:100A400000BF00BF5B4F08373F6807F0F00109099E
:100A50005F4F7A5C0768D7404760564F08373F685A
:100A600007F4E051890A5A4F7A5C4768D74087609B
:100A7000504F08373F6807F46041490B544F7A5C88
:100A80004768D740C760F0BD002100F44072B2F55E
:100A9000407F0AD1474A0832116821F4F8114D4AC3
:100AA00002401143434A08321160424A70321268D0
:100AB000C0F30B031A433F4B70331A607047414930
:100AC0004439086070473F494039086070474249DF
:100AD0000860704739B1374A303212680243354BEB
:100AE00030331A6006E0334A303212688243314BA9
:100AF00030331A60704739B12E4A343212680243DB
:100B00002C4B34331A6006E02A4A3432126882438E
:100B1000284B34331A60704739B1264A383212688C
:100B20000243244B38331A6006E0224A38321268F6
:100B30008243204B38331A60704739B11D4A403226
:100B4000126802431B4B40331A6006E0194A4032D8
:100B500012688243174B40331A60704739B1154A07
:100B6000443212680243134B44331A6006E0114AC0
:100B70004432126882430F4B44331A60704739B1D4
:100B80000C4A1032126802430A4B10331A6006E016
:100B9000084A103212688243064B10331A607047BD
:100BA000E1B1044A143212680243024B14331A6052
:100BB00019E0000000380240FFFFF6FE103000246C
:100BC00000004742800E47420024F40040787D0137
:100BD00008000020FFFCFF0F5C0147425B4A1268DF
:100BE00082435A4B1A60704739B1584A121D126835
:100BF0000243564B1B1D1A6006E0544A121D126830
:100C00008243524B1B1D1A60704739B14F4A0C3258
:100C1000126802434D4B0C331A6006E04B4A0C320B
:100C200012688243494B0C331A60704739B1474A06
:100C3000103212680243454B10331A6006E0434AF3
:100C4000103212688243414B10331A60704739B139
:100C50003E4A3C32126802433C4B3C331A6006E089
:100C60003A4A3C3212688243384B3C331A60704730
:100C700039B1364A403212680243344B40331A606D
:100C800006E0324A403212688243304B40331A60E9
:100C9000704739B12D4A4432126802432B4B44331A
:100CA0001A6006E0294A443212688243274B4433D3
:100CB0001A60704739B1254A4C3212680243234BFF
:100CC0004C331A6006E0214A4C32126882431F4BB3
:100CD0004C331A60704739B11C4A503212680243D3
:100CE0001A4B50331A6006E0184A50321268824399
:100CF000164B50331A60704739B1144AD21F12781C
:100D00000243124BDB1F1A7006E0104AD21F127802
:100D100082430E4BDB1F1A7070470C48603000682E
:100D200040F080700949603108607047014600203A
:100D3000064A083A12680A400AB1012000E0002081
:100D400070470249891F087070470000143802403C
:100D500010B50446F748844208D101211020FFF75E
:100D600065FF00211020FFF761FF3EE0F24884425A
:100D700009D101214804FFF748FF00214FF400305A
:100D8000FFF743FF31E0ED48844209D10121880497
:100D9000FFF73BFF00214FF48020FFF736FF24E0F0
:100DA000E748844209D10121C804FFF72EFF002142
:100DB0004FF40020FFF729FF17E0E248844209D1F1
:100DC00001210805FFF721FF00214FF48010FFF7F4
:100DD0001CFF0AE0DC48844207D101212020FFF7F4
:100DE00025FF00212020FFF721FF10BD2DE9FF473F
:100DF00005460E460024A14600BFA046B08900B1BA
:100E000000BF2C8A24F44054F08804432C82AC891F
:100E100041F20C608443B0883189084371890843EA
:100E20000443AC81AC8A24F44074B0890443AC829E
:100E30006846FFF7BAFDBF48854202D0C2488542E6
:100E400002D1DDF80C9001E0DDF80890A88900F4EB
:100E5000004040B109EBC90000EB091031684900BE
:100E6000B0FBF1F707E009EBC90000EB09103168AE
:100E70008900B0FBF1F76420B7FBF0F00401200912
:100E8000642101FB1078A88900F4004040B13220B1
:100E900000EBC800B0FBF1F000F00700044308E0ED
:100EA000322000EB08106421B0FBF1F000F00F00DD
:100EB00004432C81BDE8FF874FF4165101600021E7
:100EC0008180C18001810C21418100218181704795
:100ED00010B502460020108A20F470600B884C8800
:100EE00023438C882343CC8823431843108210BDAE
:100EF0000021018041808180C180704721B18289B9
:100F000042F40052828104E082894DF6FF731A4058
:100F100082817047028B02F47F420283028B0A4374
:100F20000283704721B1828942F40042828103E04A
:100F30008289C2F30E028281704721B1828A42F413
:100F40000062828204E0828A4FF2FF731A4082823A
:100F50007047C1F308028280704701468888C0F359
:100F600008007047028A4FF6F0731A400282028A24
:100F70000A430282704721B1828942F002028281D3
:100F800004E082894FF6FD731A408281704782899E
:100F90004FF2FF731A40828182890A43828170472F
:100FA000028A4FF6DF731A400282028A0A430282E3
:100FB000704721B1028A42F48042028204E0028A30
:100FC0004BF6FF731A4002827047818941F001019C
:100FD0008181704721B1828A42F00802828204E056
:100FE000828A4FF6F7731A4082827047028BD2B220
:100FF0000283028B42EA01220283704721B1828A76
:1010000042F02002828204E0828A4FF6DF731A40A7
:101010008282704721B1828A42F01002828204E00B
:10102000828A4FF6EF731A4082827047828A4FF6A7
:10103000FB731A408282828A0A438282704721B1FE
:10104000828A42F00202828204E0828A4FF6FD73B5
:101050001A40828270471AB1838A0B43838202E06E
:10106000838A8B4383827047F0B5034600240026B1
:101070000025002040F66A17B94200D100BF18468B
:10108000C1F3421401F01F06012707FA06F5012CEF
:1010900001D10C3004E0022C01D1103000E01430FA
:1010A0001AB107682F43076002E00768AF43076083
:1010B000F0BD02460020B1F5007F00D100BF1388CB
:1010C0000B400BB1012000E00020704701F40072DA
:1010D000B2F5007F00D100BFCA430280704770B5EF
:1010E0000246002400230025002040F66A16B14283
:1010F00000D100BFC1F3421501F01F03012606FA1B
:1011000003F3012D02D19689334006E0022D02D16E
:10111000168A334001E0968A33400C12012606FA03
:1011200004F41688344013B10CB1012000E0002013
:1011300070BD000000100140004400400048004025
:10114000004C0040005000400014014010B5002247
:10115000002340F66A14A14200D100BF0A12012404
:101160009440A3B2DC43048010BD0000016821F06C
:10117000010101600021016041608160C160016185
:1011800021214161DB49884204D13D21D94A103AED
:1011900091608CE0D7491831884205D14FF47461D1
:1011A000D44A103A916082E0D2493031884205D168
:1011B0004FF47411CF4A103A916078E0CD4948312C
:1011C000884205D14FF07461CA4A103A91606EE0CE
:1011D000C8496031884204D1C749C64A103AD16033
:1011E00065E0C4497831884204D1C449C14A103A03
:1011F000D1605CE0BF499031884204D1C049BD4A0A
:10120000103AD16053E0BB49A831884205D14FF074
:101210003D51B84A103AD16049E0BA49884204D1F8
:101220003D21B84A083A116041E0B6491831884278
:1012300005D14FF47461B34A083A116037E0B149FF
:101240003031884205D14FF47411AE4A083A11602A
:101250002DE0AC494831884205D14FF07461A94A6C
:10126000083A116023E0A7496031884204D1A249BD
:10127000A44A121F11601AE0A2497831884204D1B1
:101280009E49A04A121F116011E09E499031884288
:1012900004D19B499B4A121F116008E09949A8316B
:1012A000884204D14FF03D51964A121F1160704799
:1012B00010B500220268944B1A40CC680B68234397
:1012C0004C6923438C692343CC6923430C6A234331
:1012D0004C6A23438C6A23434C6B23438C6B23431C
:1012E0001A430260426922F00702D1E90B3423431A
:1012F0001A4342610B6943604B6883608B68C3602B
:1013000010BD0021016041608160C16001614161E7
:101310008161C161016241628162C16201634163B5
:101320008163704721B1026842F00102026003E06C
:10133000026822F001020260704721B1026842F4A3
:101340000042026003E0026822F40042026070473B
:1013500021B1026842F02002026003E0026822F03C
:10136000200202607047416070470146486880B2C1
:10137000704722B1036843F40023036003E003686D
:1013800023F4002303600161704721B1026842F435
:101390008022026003E0026822F48022026070472B
:1013A0000AB1016100E0C1607047014600200A688F
:1013B00002F400220AB1012000E00020704701463B
:1013C00000200A6802F001020AB1012000E00020BA
:1013D0007047014600204A6902F03800704730B576
:1013E00003460A4600200024464DAB4202D2414942
:1013F000103901E04349103902F000550DB14C6835
:1014000000E00C68414D2C4004EA02050DB10120BA
:1014100000E0002030BD02463A4B9A4202D23548E5
:10142000103801E03748103801F000531BB1374B3A
:101430000B40C36002E0354B0B408360704710B532
:1014400001F080034BB122B1436943F08003436153
:1014500003E0436923F08003436180290BD02AB164
:10146000036801F01E042343036004E0036801F0F5
:101470001E04A343036010BD70B502460020002483
:101480000025204EB24202D21A4B103B01E01D4B08
:10149000103B1F4E0E4036B11E2606EAD1241668B8
:1014A00006EA040502E0566906F0800501F00056E0
:1014B0000EB15C6800E01C68144E344004EA01067A
:1014C00016B10DB1012000E0002070BD02460D4BA9
:1014D0009A4202D20748103801E00A48103801F059
:1014E00000531BB1094B0B40C36002E0074B0B409C
:1014F00083607047106002403D000020400F0020D4
:1015000000003D20106402403F801CF07D0F7D0FE5
:101510003C0F3C0F0CB5002001900090764800680D
:1015200040F480307449086000BF7348006800F4DC
:10153000003000900198401C0190009818B9019863
:10154000B0F5A06FF1D16C48006800F4003010B124
:101550000120009001E0002000900098012846D171
:1015600065484030006840F0805063494031086071
:101570006248006840F48040604908605E48083076
:1015800000685D49083108600846006840F4004082
:1015900008600846006840F4A05008605848091FD9
:1015A0000860081F006840F08070091F086000BFD5
:1015B0005148006800F000700028F9D040F2056042
:1015C000504908604C480830006820F003004A4940
:1015D000083108600846006840F00200086000BF5B
:1015E00045480830006800F00C000828F8D10CBD10
:1015F00010B54548006840F47000434908603E4813
:10160000006840F001003C49086000203A49083178
:101610000860394800683D490840374908603C483F
:10162000091D0860081F006820F48020091F086059
:10163000002031490C310860FFF76CFF4FF000606B
:1016400031498039086010BD70B5002000220223A6
:1016500000240221284D08352D6805F00C0020B12A
:10166000042806D0082834D107E02A4D2A4E3560D8
:1016700033E02A4D284E35602FE01F4D2D1D2D687B
:10168000C5F380541C4D2D1D2D6805F03F0154B14C
:10169000224DB5FBF1F5184E361D3668C6F3881697
:1016A00005FB06F209E01B4DB5FBF1F5124E361DA8
:1016B0003668C6F3881605FB06F20F4D2D1D2D6802
:1016C000C5F301456D1C6B00B2FBF3F5124E35609E
:1016D00003E0104D104E356000BF00BF064D0835C9
:1016E0002D68C5F303150E4E705D0B4D2D68C5407A
:1016F000094E356070BD00000038024000700040A7
:1017000019544007003C024088ED00E0FFFFF6FE60
:10171000103000240024F4001800002040787D01DF
:101720001C0000200648804706480047FEE7FEE709
:10173000FEE7FEE7FEE7FEE7FEE7FEE7FEE7FEE781
:10174000F11500088901000830B50B46014600205C
:101750002022012409E021FA02F59D4205D303FA73
:1017600002F5491B04FA02F52844151EA2F10102F4
:10177000F1DC30BD064C074D06E0E06840F00103A7
:1017800094E8070098471034AC42F6D3FEF700FD0A
:1017900040190008601900080FB4054B10B503A9E3
:1017A000044A029800F018F810BC5DF814FB000021
:1017B000B50300080400002002E008C8121F08C199
:1017C000002AFAD170477047002001E001C1121FC2
:1017D000002AFBD1704700002DE9FF4F89B09B46DE
:1017E0000446002506E025280BD05A460B99904761
:1017F000641C6D1C20780028F5D10DB02846BDE88A
:10180000F08F0027B8460122474900E0074314F84B
:10181000013F203B02FA03F00842F7D120782E283E
:1018200019D114F8010F47F004072A280ED06FF0E1
:101830002F022078A0F1300109290CD808EB88018B
:1018400002EB410100EB0108641CF2E70A98641CFA
:1018500050F8048B0A9020780028CED0642808D055
:10186000692806D075281ED05A460B9990476D1CE2
:1018700058E00A994FF00A0901C90A91002802DAD2
:1018800040422D2102E0390504D52B218DF820108E
:10189000012103E0F90704D02021F7E78A4608AECA
:1018A0000DE00021FAE70A994FF00A0901C90A91EF
:1018B000F7E74946FFF748FF303106F8011D0028D9
:1018C000F7D1ADEB060000F12009780701D44FF005
:1018D0000108C84502DDA8EB090000E000208046B1
:1018E000002706E008A85A46C05D0B9990476D1C7A
:1018F0007F1C5745F6DB04E030205A460B99904791
:101900006D1CB8F10001A8F10108F5DC05E016F83E
:10191000010B5A460B9990476D1CB9F10001A9F1D2
:101920000109F4DC641C65E709280100776875206B
:1019300077687520776875207768752077687500F7
:1019400060190008000000202C000000B8170008F3
:101950008C1900082C00002014040000C81700088F
:10196000000000000000000000000000010203046D
:101970000102030406070809007A030A00000000B8
:0C19800000000000010203040607080933
:040000050800018965
:00000001FF
