:020000040800F2
:1000000020200020191B0008E5020008E702000874
:10001000F9020008FD0200080103000800000000CA
:1000200000000000000000000000000005030008C0
:100030000703000800000000833D0008E73F0008B8
:10004000331B0008331B0008331B0008331B000858
:10005000331B0008331B0008331B0008331B000848
:10006000331B0008331B0008331B0008331B000838
:10007000331B0008331B0008331B0008331B000828
:10008000331B0008331B0008331B0008331B000818
:10009000331B0008331B0008331B0008331B000808
:1000A000331B0008331B0008331B0008331B0008F8
:1000B000331B000871030008331B0008331B0008C2
:1000C000331B0008331B0008331B0008331B0008D8
:1000D000331B0008331B0008331B0008331B0008C8
:1000E000331B0008331B0008331B0008331B0008B8
:1000F000331B0008331B0008331B0008331B0008A8
:10010000331B0008331B0008331B0008331B000897
:10011000331B0008331B0008331B0008331B000887
:10012000331B0008331B0008331B0008331B000877
:10013000331B0008331B0008331B0008331B000867
:10014000331B0008331B0008331B0008331B000857
:10015000331B0008331B0008331B0008331B000847
:10016000331B0008331B0008331B0008331B000837
:10017000331B0008331B0008331B0008331B000827
:10018000331B0008331B0008DFF80CD003F074FFAA
:1001900000480047790200082020002010B5002107
:1001A00007E04AF2104200BF131EA2F10102FBD188
:1001B000491C8142F5D310BD10B5002106E028226C
:1001C00000BF131EA2F10102FBD1491C8142F6D3EC
:1001D00010BD00BF011EA0F1010290B2FAD170471C
:1001E0001CB50121022000F0FFFB4FF4407000908D
:1001F00001208DF8040000208DF8060002208DF803
:10020000050069461A4800F0A9F94FF480711848B2
:1002100000F020FA4FF40071154800F01DFA1CBDE3
:1002200070B50446112C00DD11241248055D00262E
:100230001AE04FF480710E4800F00EFA05F001004C
:1002400028B14FF400710A4800F004FA04E04FF4BA
:100250000071074800F000FA4FF48071044800F084
:10026000F9F96D10701CC6B2082EE2DB70BD0000FB
:1002700000040240BA4000081CB501F0B3FB4FF483
:10028000A06000F08DF80121084600F0ADFB1020C1
:10029000009001208DF8040000208DF806008DF8F4
:1002A000050001208DF8070069460D4800F056F959
:1002B00010210B4800F0CEF942F2CF0141F2873015
:1002C00000F022F801E000F053F8FCE700BF03F073
:1002D000A0FE00BF42F2107003F05CFCFAE70000E1
:1002E00000000240704706E04FF4FA70FFF756FF37
:1002F0000920FFF795FFF7E700BFFEE700BFFEE725
:1003000000BFFEE7704770477FB504460D460121E8
:10031000022000F09CFB41F28830029041F61F4021
:10032000ADF804000020ADF80C00ADF8060001A9FE
:10033000194800F044FD01221146174801F0E0F988
:100340004FF4A06000F02CF81D208DF80000012073
:100350008DF8010002208DF8020001208DF80300C5
:10036000684600F022F801210B4800F0B1FD7FBD86
:1003700010B50121084801F0DAF9012807D1074832
:10038000006808B9012000E000200449086001214C
:10039000014801F0DDF910BD000400409002404228
:1003A00032490143324A1160704770B50021002381
:1003B0000F22C4781CB32E4C246804F4E064C4F506
:1003C000E064C4F30721C1F10404E3B20A414478B4
:1003D0009C40E1B28478144021430C07210E254C47
:1003E00005786155047804F01F050124AC400578B8
:1003F0006D11AD0005F1E025C5F8004109E0047874
:1004000004F01F050124AC401B4D0678761145F819
:10041000264070BD194A0A400243154B1B1F1A6043
:10042000704739B1124A121D12680243104B1B1D4E
:100430001A6006E00E4A121D126882430C4B1B1D07
:100440001A607047042808D14FF0E021096941F093
:1004500004014FF0E022116107E04FF0E02109694B
:1004600021F004014FF0E022116170470000FA050D
:100470000CED00E000E400E080E100E080FFFF1F01
:1004800010B504468C48844208D10121084600F08A
:1004900000FB0021012000F0FCFA5EE08748844266
:1004A00008D10121022000F0F4FA0021022000F01E
:1004B000F0FA52E08248844208D10121042000F081
:1004C000E8FA0021042000F0E4FA46E07D48844286
:1004D00008D10121082000F0DCFA0021082000F0FA
:1004E000D8FA3AE07848844208D10121102000F07F
:1004F000D0FA0021102000F0CCFA2EE0734884429C
:1005000008D10121202000F0C4FA0021202000F0B1
:10051000C0FA22E06E48844208D10121402000F058
:10052000B8FA0021402000F0B4FA16E0694884428D
:1005300008D10121802000F0ACFA0021802000F0D9
:10054000A8FA0AE06448844207D10121801500F02E
:10055000A0FA0021A01500F09CFA10BDF0B50A46E3
:1005600000210023002400BF3DE0012505FA01F32E
:10057000156805EA03049C4234D105684F00032640
:10058000BE40B543056015794E00B5400668354359
:1005900005601579012D02D01579022D16D18568D7
:1005A0004F000326BE40B543856055794E00B540E7
:1005B000866835438560456801268E40B5434560B1
:1005C000456896798E40B6B235434560C5684F00A0
:1005D0000326BE40B543C560D5794E00B540C66818
:1005E0003543C560491C1029BFD3F0BD4FF6FF71DC
:1005F00001600021017141718171C171704708B5BD
:100600004FF480320092009A0A430092009AC2612D
:10061000C161009AC261C2690092C269009208BDBC
:100620000246002013690B400BB1012000E00020BE
:1006300070470146086980B270470246002053693E
:100640000B400BB1012000E00020704701464869D3
:1006500080B2704701837047418370470AB10183BC
:1006600000E0418370474161704742694A404261FE
:100670007047F0B5002300244D07ED0E02FA05F394
:10068000CE1000F1200555F826504E07F70E0F2624
:10069000BE40B543CF1000F1200646F82750CE10DB
:1006A00000F1200555F8265045EA0304CE1000F16C
:1006B000200545F82640F0BD00000240000402403D
:1006C00000080240000C02400010024000140240EA
:1006D00000180240001C024000200240FA48006856
:1006E00040F00100F84908600020F749083108602F
:1006F000F5480068F5490840F3490860F448091DC9
:100700000860081F006820F48020091F086000208E
:10071000ED490C31086070470021EB4A921C1170C2
:1007200011460870704710B50146002200230020D2
:100730004A11012A02D1E44C236808E0022A03D1BD
:10074000E14C7034236802E0DF4C7434236801F01C
:100750001F02012494401C400CB1012000E0002045
:1007600010BD38B5002000900024002500BF3120C6
:10077000FFF7D9FF05460098401C00900098B0F59F
:10078000A06F01D0002DF2D03120FFF7CCFF08B1CF
:10079000012400E00024204638BD01460020CA4A5A
:1007A000106820F0F80040EAC10010607047C949A5
:1007B000086070470021C44A70321170117001281E
:1007C00002D004280AD104E00121BF4A703211701E
:1007D00005E00521BC4A7032117000E000BF00BF87
:1007E0007047BD490860704770B5049C41EA8215A6
:1007F0000126C6EB530645EA0645054345EA04656E
:10080000B14E361D356070BDB24908667047820131
:1008100042EA0172AC4B84331A607047AD49886676
:100820007047AC49C864704702460020A64B0833A5
:10083000186820F0EC6042EA01031843A24B083329
:1008400018607047024600209F4B0833186820F05C
:10085000784042EA010318439B4B08331860704705
:1008600001460020984A0832106820F0030008432F
:100870001060704794480830006800F00C00704722
:1008800001460020904A0832106820F0F00008432A
:1008900010607047014600208B4A0832106820F42F
:1008A000E05008431060704701460020864A083235
:1008B000106820F4604040EAC10010607047F0B555
:1008C0000021002200240225002602237E4F083743
:1008D0003F6807F00C0121B1042905D0082937D160
:1008E00005E07E4F076036E07D4F076033E0764FCE
:1008F0003F1D3F68C7F38056734F3F1D3F6807F0A9
:100900003F036EB1764FB7FBF3F7DFF8BCC10CF1D4
:10091000040CDCF800C0CCF3881C07FB0CF40CE0E2
:100920006E4FB7FBF3F7DFF8A0C10CF1040CDCF855
:1009300000C0CCF3881C07FB0CF4634F3F1D3F68DD
:10094000C7F301477F1C7D00B4FBF5F7076002E0A9
:10095000624F076000BF00BF5B4F08373F6807F07A
:10096000F00109095F4F7A5C0768D7404760564F2E
:1009700008373F6807F4E051890A5A4F7A5C4768A4
:10098000D7408760504F08373F6807F46041490BF4
:10099000544F7A5C4768D740C760F0BD002100F42F
:1009A0004072B2F5407F0AD1474A0832116821F4FB
:1009B000F8114D4A02401143434A08321160424A3D
:1009C00070321268C0F30B031A433F4B70331A6046
:1009D000704741494439086070473F4940390860D1
:1009E000704742490860704739B1374A303212685F
:1009F0000243354B30331A6006E0334A3032126816
:100A00008243314B30331A60704739B12E4A343249
:100A1000126802432C4B34331A6006E02A4A3432FF
:100A200012688243284B34331A60704739B1264A22
:100A3000383212680243244B38331A6006E0224AE7
:100A4000383212688243204B38331A60704739B10C
:100A50001D4A4032126802431B4B40331A6006E0C5
:100A6000194A403212688243174B40331A6070476C
:100A700039B1154A443212680243134B44331A60A9
:100A800006E0114A4432126882430F4B44331A6025
:100A9000704739B10C4A1032126802430A4B1033C6
:100AA0001A6006E0084A103212688243064B10337F
:100AB0001A607047E1B1044A143212680243024BD3
:100AC00014331A6019E0000000380240FFFFF6FE00
:100AD0001030002400004742800E47420024F400FA
:100AE00040787D0100000020FFFCFF0F5C014742C1
:100AF0005B4A126882435A4B1A60704739B1584AB0
:100B0000121D12680243564B1B1D1A6006E0544A20
:100B1000121D12688243524B1B1D1A60704739B177
:100B20004F4A0C32126802434D4B0C331A6006E0F8
:100B30004B4A0C3212688243494B0C331A6070479F
:100B400039B1474A103212680243454B10331A60DC
:100B500006E0434A103212688243414B10331A6058
:100B6000704739B13E4A3C32126802433C4B3C3339
:100B70001A6006E03A4A3C3212688243384B3C33F2
:100B80001A60704739B1364A403212680243344B1A
:100B900040331A6006E0324A403212688243304BDA
:100BA00040331A60704739B12D4A4432126802430B
:100BB0002B4B44331A6006E0294A443212688243C0
:100BC000274B44331A60704739B1254A4C321268BA
:100BD0000243234B4C331A6006E0214A4C32126820
:100BE00082431F4B4C331A60704739B11C4A503254
:100BF000126802431A4B50331A6006E0184A50320A
:100C000012688243164B50331A60704739B1144A48
:100C1000D21F12780243124BDB1F1A7006E0104AF3
:100C2000D21F127882430E4BDB1F1A7070470C489C
:100C30006030006840F0807009496031086070479A
:100C400001460020064A083A12680A400AB101200B
:100C500000E0002070470249891F087070470000BB
:100C60001438024010B50446FE48844208D10121E0
:100C70000846FFF765FF00210120FFF761FF9DE0B7
:100C8000B4F1804F08D101210846FFF748FF002149
:100C90000120FFF744FF91E0F348844208D101218D
:100CA0000220FFF73CFF00210220FFF738FF85E01C
:100CB000EE48844208D101210420FFF730FF0021D3
:100CC0000420FFF72CFF79E0E948844208D1012194
:100CD0000820FFF724FF00210820FFF720FF6DE028
:100CE000E448844208D101211020FFF718FF0021B9
:100CF0001020FFF714FF61E0DF48844208D1012192
:100D00002020FFF70CFF00212020FFF708FF55E00F
:100D1000DA48844208D101210220FFF711FF0021A7
:100D20000220FFF70DFF49E0D548844209D1012197
:100D30000804FFF705FF00214FF48030FFF700FFA4
:100D40003CE0D048844209D101214804FFF7F8FE75
:100D500000214FF40030FFF7F3FE2FE0CA48844231
:100D600009D101218804FFF7EBFE00214FF4802018
:100D7000FFF7E6FE22E0C548844208D10121402069
:100D8000FFF7CDFE00214020FFF7C9FE16E0C04866
:100D9000844208D101218020FFF7C1FE002180207C
:100DA000FFF7BDFE0AE0BB48844207D10121801550
:100DB000FFF7B5FE0021A015FFF7B1FE10BD002220
:100DC0000288A84B98420ED0AC4B98420BD0B0F1A1
:100DD000804F08D0A44B984205D0A44B984202D033
:100DE000A34B984204D14FF68F731A404B881A4395
:100DF000A04B984207D0A04B984204D04FF6FF4337
:100E00001A400B891A4302804B68C3620B88038522
:100E1000944B984202D0994B984201D18B7A038629
:100E20000123838270474FF0FF3141600021018030
:100E300001814180817270470185828270470A4634
:100E4000002101884FF68F731940114301807047CC
:100E500041627047C16270470146486A7047014667
:100E6000088D704721B1028842F00202028004E03E
:100E700002884FF6FD731A400280704721B1028844
:100E800042F00402028004E002884FF6FB731A402D
:100E90000280704721B1028842F08002028004E0A3
:100EA00002884FF67F731A400280704702884FF61F
:100EB000F7731A40028002880A4302807047028852
:100EC0004FF6FF431A40028002880A4302807047AF
:100ED00021B1028842F00102028004E002884FF64C
:100EE000FE731A400280704770B500240022002370
:100EF000058C4FF6FE7635400584028C8388048B82
:100F00004FF68F752C40B51E2C400D882C43751E56
:100F10002A408D892A434D882A43524DA84202D047
:100F2000564DA84213D14FF6F7752A40CD892A4372
:100F30004FF6FB752A408D882A434FF6FF652B40FC
:100F40004FF6FF552B400D8A2B434D8A2B43838050
:100F500004838D684563028470BD70B5002400224F
:100F60000023058C4FF6EF7635400584028C83888C
:100F7000048B48F6FF752C404FF6FF452C400D883A
:100F80004FF6FF7606EA05252C434FF6DF752A401B
:100F90008D8906EA05152A434D8806EA05152A4378
:100FA000304DA84202D0354DA8421DD14FF67F7575
:100FB0002A40CD894FF6FF7606EA05152A434FF6FB
:100FC000BF752A408D8806EA05152A434FF6FF357E
:100FD0002B404FF2FF752B400D8A06EA85052B4307
:100FE0004D8A06EA85052B43838004838D688563DB
:100FF000028470BD70B5002400220023058C4FF6DA
:10100000FF6635400584028C8388848B4FF68F758C
:101010002C404FF6FC752C400D882C434FF6FF55A5
:101020002A408D894FF6FF7606EA05252A434D882A
:1010300006EA05252A430B4DA84202D00F4DA842CF
:1010400038D14FF2FF752A40CD894FF6FF7606EA78
:1010500005252A434FF6FF352A408D8806EA0525E7
:101060002A4319E00000014000040040000800404D
:10107000000C00400010004000140040000401403B
:101080000040014000440140004801400018004079
:10109000001C0040002000404EF6FF752B404DF62E
:1010A000FF752B400D8A06EA05152B434D8A06EA8B
:1010B00005152B43838084838D68C563028470BDCE
:1010C00070B5002200230024058C4EF6FF763540D3
:1010D0000584038C8488828B48F6FF752A404FF67E
:1010E000FF452A400D884FF6FF7606EA05252A437C
:1010F0004DF6FF752B408D8906EA05352B434D884B
:1011000006EA05352B43FE4DA84202D0FD4DA8420C
:1011100008D14BF6FF752C400D8A4FF6FF7606EA94
:1011200085152C43848082838D680564038470BD9B
:10113000002101804180818081608181C1810182A3
:101140004182704770B503460020002418461830CD
:1011500001258D40ACB21D8CA5431D8409B1082921
:101160000AD100EB610005684FF68F7635400560C7
:101170000568154305600FE00D1FC5F34E052844B3
:10118000056848F6FF763540056005684FF6FF763E
:1011900006EA02263543056070BD416370478163EE
:1011A0007047C1637047016470470A460021018B94
:1011B0004FF68F7319401143018370470A4600218F
:1011C000018B48F6FF7319404FF6FF7303EA0223C1
:1011D0001943018370470A460021818B4FF68F73B4
:1011E00019401143818370470A460021818B48F6DC
:1011F000FF7319404FF6FF7303EA022319438183FB
:1012000070470A460021018B4FF6F77319401143CE
:10121000018370470A460021018B4FF2FF7319408A
:101220004FF6FF7303EA02231943018370470A460E
:101230000021818B4FF6F77319401143818370476A
:101240000A460021818B4FF2FF7319404FF6FF735E
:1012500003EA02231943818370470A460021018B68
:101260004FF6FB7319401143018370470A46002172
:10127000018B4FF6FF3319404FF6FF7303EA022349
:101280001943018370470A460021818B4FF6FB7397
:1012900019401143818370470A460021818B4FF624
:1012A000FF3319404FF6FF7303EA0223194381838A
:1012B00070470A460021018B4FF67F731940114396
:1012C000018370470A460021018BC1F30E014FF6DE
:1012D000FF7303EA02231943018370470A46002182
:1012E000818B4FF67F7319401143818370470A4603
:1012F0000021818BC1F30E014FF6FF7303EA022335
:101300001943818370470A460021018C4FF6FD7313
:1013100019401143018470470A460021018C4FF6A1
:10132000F77319401143018470470A460021018C6C
:101330004FF6DF7319404FF6FF7303EA02131943A8
:10134000018470470A460021018C4FF67F731940D3
:101350004FF6FF7303EA02131943018470470A46EC
:101360000021018C4FF6FF5319404FF6FF7303EA3B
:1013700002231943018470470A460021018C4FF271
:10138000FF7319404FF6FF7303EA022319430184E8
:1013900070470A460021018C4DF6FF7319404FF645
:1013A000FF7303EA023319430184704730B5002309
:1013B00001248C40A3B2048C9C430484048C02FA64
:1013C00001F5ADB22C43048430BD30B500230424B4
:1013D0008C40A3B2048C9C430484048C02FA01F573
:1013E000ADB22C43048430BD828B4FF2FF331A40E0
:1013F0008283828B4FF6FF7303EA01231A438283B1
:101400007047F0B50C461546002100220026078CD7
:101410004EF6FF7C07EA0C070784818B028C4FF69F
:10142000FF7707EA043640F6FF4739404FF6FF776B
:1014300007EA052739434FF6FF7707EA03373943B1
:1014400045F6FF773A4046F480573A438183028459
:10145000F0BD828B4FF6F3731A408283828B0A436E
:1014600082837047F0B50C46154600210022002605
:10147000078C4FF6FF6C07EA0C070784818B028C00
:101480004FF6FF7707EA04264FF60C7739404FF600
:10149000FF7707EA03172F4339434FF2FF573A40CC
:1014A00046F480773A4381830284F0BD028B4FF289
:1014B000FF331A400283028B4FF6FF7303EA0123C6
:1014C0001A4302837047F0B50C46154600210022EE
:1014D0000026078C4FF6EF7C07EA0C070784018B88
:1014E000028C4FF6FF7707EA041640F6FF473940B3
:1014F0004FF6FF7707EA033739434FF6FF7703E0EC
:10150000000001400004014007EA052739434FF677
:101510005F773A4046F010073A4301830284F0BDFA
:10152000028B4FF6F3731A400283028B0A43028345
:101530007047F0B50C46154600210022068C4FF688
:10154000FE773E400684018B028C4FF60C763140CC
:101550007E1C06EA03162E4331434FF6F5763240E1
:1015600044F00106324301830284F0BD70B50546A4
:101570000C46208850B92389A28861882846FFF745
:10158000D8FFE1882846FFF7CBFF25E02088042814
:101590000AD12389A28861882846FFF794FFE18851
:1015A0002846FFF783FF17E0208808280AD12389FF
:1015B000A28861882846FFF755FFE1882846FFF793
:1015C00048FF09E02389A28861882846FFF719FFB0
:1015D000E1882846FFF708FF70BD002101804180A7
:1015E000012181800021C180018170472DE9F041F6
:1015F00005460C4600260127608808B9022600E04F
:101600000026A088012801D1022700E001272088B8
:10161000A0B92389A28861882846FFF78AFFE1885C
:101620002846FFF77DFF23893A4631462846FFF7D3
:101630004AFFE1882846FFF739FF13E02389A28893
:1016400061882846FFF73FFFE1882846FFF72EFF15
:1016500023893A4631462846FFF76BFFE188284642
:10166000FFF75EFFBDE8F0810146486B7047014619
:10167000886B70470146C86B70470146086C70471D
:101680000A884B881A438B881A43CB881A430B89E4
:101690001A434B891A438B891A43A0F84420704798
:1016A0000021018041808180C1800181418181814F
:1016B000704731B1B0F8442042F40042A0F8442011
:1016C00005E0B0F84420C2F30E02A0F844207047B1
:1016D00021B1828842F00402828004E082884FF6C1
:1016E000FB731A408280704721B1828842F0010268
:1016F000828004E082884FF6FE731A408280704731
:101700001AB183890B43838102E083898B438381F0
:1017100070478182704702460020138A0B400BB14C
:10172000012000E000207047CA430282704730B5B4
:101730000246002000230024158A05EA010395894A
:1017400005EA010413B10CB1012000E0002030BD16
:10175000CA430282704741EA0203A0F8483070474A
:101760001AB183890B43838102E083898B43838190
:10177000704721B1828842F00802828004E08288AA
:101780004FF6F7731A408280704701894FF6F8725E
:101790001140018170470A46002101894FF68F737D
:1017A000194011430181704730B504460D46294662
:1017B0002046FFF7F0FF208940F00700208130BD70
:1017C0002DE9F04104460D4616461F46602D06D110
:1017D0003B46012231462046FFF775FE05E03B46B9
:1017E000012231462046FFF7A4FE29462046FFF796
:1017F000D2FF208940F007002081BDE8F08130B59C
:101800000C4600210189C9B24FF6FF7505EA032590
:10181000154325432943018130BD2DE9F04105469B
:101820000E4617469846002443463A463146284617
:10183000FFF7E5FF2C894FF6F870044044F00704E9
:101840004FF68F70044044F070042C81BDE8F081A5
:10185000F0B504460D4616461F463B46324629461D
:101860002046FFF7CCFF208940F480402081F0BD66
:1018700082884FF68F731A40828082880A43828062
:10188000704702894FF6F8731A40028102890A43B1
:101890000281704702894FF67F731A4002810289E4
:1018A0000A4302817047F0B50C4615461E460021DA
:1018B000002200230189028B038C4FF6F877394010
:1018C00021434FF6FC473A4040F201173A434FF6A6
:1018D000DD773B404FF6FF7707EA06172F433B4380
:1018E000018102830384F0BD21B1828842F080022D
:1018F000828004E082884FF67F731A4082807047AE
:10190000A0F85010704700000CB500200190009026
:101910007648006840F480307449086000BF73481E
:10192000006800F4003000900198401C019000987D
:1019300018B90198B0F5A06FF1D16C48006800F4B7
:10194000003010B10120009001E0002000900098CC
:10195000012846D165484030006840F08050634916
:10196000403108606248006840F480406049086087
:101970005E48083000685D49083108600846006824
:1019800040F4004008600846006840F4A050086039
:101990005848091F0860081F006840F08070091F40
:1019A000086000BF5148006800F000700028F9D0BE
:1019B00040F20560504908604C480830006820F04B
:1019C00003004A49083108600846006840F00200F8
:1019D000086000BF45480830006800F00C00082887
:1019E000F8D10CBD10B54548006840F4700043497B
:1019F00008603E48006840F001003C490860002053
:101A00003A4908310860394800683D49084037497B
:101A100008603C48091D0860081F006820F4802009
:101A2000091F0860002031490C310860FFF76CFF86
:101A30004FF0006031498039086010BD70B500205A
:101A40000022022300240221284D08352D6805F0CC
:101A50000C0020B1042806D0082834D107E02A4D14
:101A60002A4E356033E02A4D284E35602FE01F4D59
:101A70002D1D2D68C5F380541C4D2D1D2D6805F0BE
:101A80003F0154B1224DB5FBF1F5184E361D3668B5
:101A9000C6F3881605FB06F209E01B4DB5FBF1F510
:101AA000124E361D3668C6F3881605FB06F20F4D3A
:101AB0002D1D2D68C5F301456D1C6B00B2FBF3F5C0
:101AC000124E356003E0104D104E356000BF00BF70
:101AD000064D08352D68C5F303150E4E705D0B4D90
:101AE0002D68C540094E356070BD000000380240C9
:101AF0000070004019544007003C024088ED00E0AF
:101B0000FFFFF6FE103000240024F4001000002037
:101B100040787D01140000200648804706480047B1
:101B2000FEE7FEE7FEE7FEE7FEE7FEE7FEE7FEE78D
:101B3000FEE7FEE7E5190008890100087CB50025ED
:101B400014E06946284601F01DFF064666B9FD48C7
:101B500050F8254044B1012C06D0D4E9020100EB35
:101B6000810060640198A064681CC5B23F2DE8D96B
:101B70007CBD00BF00BF03E04FF4FA6002F00AF83A
:101B8000F14800780028F7D0F04800686421B0FBE5
:101B9000F1F0EE4908600846006828B90020EC49D9
:101BA0000870FF2001F02EFF02F0CAF80446E74853
:101BB000006864214843E7490860204602F0C4F801
:101BC00000BF02F0BDF80446E2480068E249086040
:101BD0000020E0490860204602F0B6F8DE480068C0
:101BE000DA490968B0FBF1F0C0F16400D849087027
:101BF00002F004F9FFF7A2FF4FF47A7001F0CAFF78
:101C0000DFE700B587B0032000218022D34BCDE968
:101C10000132CDE903104FF6FE703E23D04A00900A
:101C2000AFF2B10001F0C7FC06AACEA13E2001F040
:101C30002BFE07B000BD002400BF00BF02F080F8FB
:101C40000446C4480068401CC2490860204602F0AF
:101C50007BF802F0D2F8F1E700B587B0032000214D
:101C60008022C44BCDE90132CDE903104FF6FF705D
:101C70003F23C14A0090AFF2410001F09CFC06AA4C
:101C8000BEA13F2001F000FE07B000BD04E000222D
:101C900000F8012B4A1E91B20029F8D1704770B5A7
:101CA0004FF49671B948FFF7F1FF00230FE0581C7D
:101CB00085B203EB8300B54901EB800405EB850099
:101CC00001EB8006002020706660581C83B20E2B4A
:101CD000EDD303EB8300AD4901EB800400202070BD
:101CE00060600846AA49086070BD70B541F258416D
:101CF000A848FFF7CBFF4FF480719248FFF7C6FF6B
:101D0000002413E0601CC5B2C4EBC40000EB40002B
:101D1000A04901EB8003C5EBC50000EB400001EBDF
:101D200080065E619CA0D864601CC4B23D2CE9D3DF
:101D3000C4EBC40000EB4000964901EB8003002097
:101D4000586195A0D864002094490860914894494E
:101D5000086070BD0021934A1170002004E000214A
:101D6000914A1154411CC8B20828F8D300218F4A67
:101D700011708F4A11708F4A11608F4A116070473D
:101D800000208E4908608E4908708E4908708E497F
:101D900008708E4908708E4908606E4908606E4967
:101DA00008606A49086068490870704710B502F019
:101DB0001FF8FFF7E5FFFFF7CDFFFFF796FFFFF7EF
:101DC0006EFF00F0F3FE00F0E4FF01F0DAFAFFF737
:101DD00043FFFFF716FF02F00DF810BD7B480078B7
:101DE000012808D176480078FF2804D2744800788A
:101DF000401C73490870704776496A4A1278885CBB
:101E00006949095C734A515C01EBC001684A117071
:101E1000704710B500246D480078012830D101F0DA
:101E20008FFF04466648007820B165480078401E60
:101E30006349087062480078F8B962480078E0B9F0
:101E4000FFF7DAFF3F485A49097850F8210059490D
:101E50000860574800785549097888420DD05548A0
:101E60000068806B401C53490968886358480068C3
:101E7000401C5749086001F07FFF204601F064FFD5
:101E800010BD10B5002451480078012811D101F08F
:101E900057FF04464A48007840B94A480078FF286E
:101EA00004D248480078401C46490870204601F09A
:101EB0004BFF10BD10B5002401F042FF044640481E
:101EC0000078F8B93F480078E0B9FFF795FF1D4862
:101ED0003749097850F821003649086034480078BD
:101EE0003249097888420DD032480068806B401C26
:101EF00030490968886336480068401C34490860E6
:101F000001F035FF204601F01FFF10BD10B5002481
:101F10002E48007801286FD101F012FF04462848AE
:101F2000007860B92748007850B126480078401EF4
:101F3000244908700846007818B920464CE058E05B
:101F400053E04EE0F00500203C000020340000206B
:101F5000300000204C00002038000020F00100205C
:101F6000EC03002075432F4F532D494920537461D2
:101F700074000000F0030020EC05002075432F4F93
:101F8000532D49492049646C65000000740000200D
:101F900028000020F00600203F0000005C00002028
:101FA0005400002041000020420000203F0000209B
:101FB0004000002058000020500000206C0000204D
:101FC0003D0000203E0000204B0000204A00002081
:101FD00024000020CC40000801F0B6FEFFF76AFFA5
:101FE0000AE0204601F0B0FE06E0204601F0ACFE1B
:101FF00002E0204601F0A8FE10BD10B5EE480078C2
:1020000090B9FFF7F9FEED480078ED490870ED480A
:10201000EA49097850F82100EB4908600846006851
:10202000EA49086001F093FE10BD10B500240220BB
:1020300001F0B0FD01F084FE04460020E449086090
:10204000204601F081FE4FF47A7001F0A3FD01F00B
:1020500077FE0446DE480068DE4908600120DE495C
:102060000870204601F070FE10BD70B5002601F02A
:10207000B9FF01F065FE0646D8480068401CD74904
:102080000860304601F060FECB480078012853D14B
:10209000D348007820B1012804D0022809D103E0F8
:1020A00001250BE0002509E001250120CC4908703D
:1020B00004E001250020CA49087000BF00BF05B92F
:1020C00070BDC848046833E001F03AFE0646E06A95
:1020D00050B3E06A401EE062E06A28BB94F830002A
:1020E00000F0370040B114F8300F00F0C800207045
:1020F00001206070303C02E0002084F8310094F848
:10210000300000F0080078B93434A078B649097876
:102110000843B54908702078B449085C61780843E1
:1021200014F83419B14A50546469304601F00CFE79
:1021300094F832003F28C7D100BFC1E74FF4927036
:102140007047704710B590F8342001F10B039B5C89
:1021500090F83540A34301F10B04A35423469B5C44
:1021600023B98B7A90F83640A3438B7210BD2DE9CA
:10217000F04F05460F4690469946A87A9C490E5C5A
:1021800005F10B00805D11F800B00BEBC60000F00C
:10219000FF0A8C4850F82A4000202034E060276075
:1021A000207C20EA0800207484F81190207C203CD8
:1021B00000F0080068B994F836008B4909780843A4
:1021C000894908708948805D94F83510084387492B
:1021D000885529462046FFF7B5FF5046BDE8F08FE9
:1021E00010B57A4A1268D061784A126892F8343091
:1021F00000F10B02D25C754B1B6893F835301A4323
:10220000724B1B6893F8344000F10B031A55827A25
:102210006E4B1B6893F836301A4382726B4A126811
:1022200092F83410714A525C684B1B6893F8353051
:102230009A436E4B5A541A46525C42B9634A12682A
:1022400092F83630684A12789A43674B1A7010BD7C
:10225000014600228A72002005E0002301F10B02F2
:102260001354421CD0B20828F7D3704705E011F888
:10227000013B00F8013B531E9AB2002AF7D1704788
:102280000146002002E0491C421CD0B20A78002A14
:10229000F9D170472DE9F84F05460F46904699460B
:1022A000DDE90AAB0020009001F04AFD00905148A2
:1022B0000468002C7BD0183454F8040C4D49086095
:1022C000009801F041FD44F8187CA57600202076A6
:1022D0006076606144F814BC44F80CAC44F8108C8F
:1022E0000C9824F8080C24F8069C0020E077E810ED
:1022F000207705F00700E076217F01208840A07755
:10230000E17E01208840607700206060E060A0608E
:102310002062A0626062E0622063AFF2843060639A
:10232000183C002606E0002104F1500040F8261079
:10233000701CC6B2002EF6D0204601F052FE01F00D
:10234000FFFC00901F4840F82540009801F0FCFC7D
:10235000204601F050FD01F0F3FC00902148006898
:1023600060610020A0611F48006810B11D4800682E
:1023700084611C4804603434A0781B490978084300
:102380001949087020781949085C6178084314F8E5
:102390003419164A505418480078401C16490870E1
:1023A000009801F0D1FC0020BDE8F88FFFE700980D
:1023B00001F0CAFC4220F7E74A000020400000205C
:1023C0003F000020F00500205800002050000020B1
:1023D0004C000020340000203C0000206C00002055
:1023E000600000205C00002041000020420000202E
:1023F000CC400008540000204B0000202DE9F05F85
:1024000004460F4691461E464FF0000B20780528E3
:1024100004D0012030700020BDE8F09F09F0800A50
:10242000BAF1000F04D029F080094FF0010801E053
:102430004FF000080020307001F082FC8346B9F1B3
:10244000000F2CD0B9F1010F3BD0B9F1020F03D02E
:10245000B9F1030F46D111E0208900EA0705BD421A
:1024600006D1B8F1010F05D12089A843208101E0F0
:1024700070203070584601F067FC3AE0208900EA8D
:10248000070535B1B8F1010F05D12089A843208196
:1024900001E070203070584601F056FC29E0208998
:1024A00027EA0005BD4206D1B8F1010F05D1208908
:1024B0002843208101E070203070584601F044FC30
:1024C00017E0208927EA000535B1B8F1010F05D1E1
:1024D00020892843208101E070203070584601F0A7
:1024E00033FC06E0584601F02FFC00256F203070C9
:1024F00000BF00BF28468FE72DE9F04106460D4694
:102500000027FA48007820B1102028700020BDE88C
:10251000F08101F015FC0746F548046884B10068B5
:102520004068F34908600520207026810020606023
:10253000F0A0E060384601F007FC0020287004E0BD
:10254000384601F001FC722028702046DFE730B5E4
:1025500001464A6808682AB9CC68606028B100253D
:10256000456002E0106000B142608B6800255D624A
:1025700030BDF0B506460F46B468002028346060D0
:102580002780207A00F0DF00207200206072207A1D
:10259000283C88B93434A078D74909780843D6490B
:1025A00008702078D549085C6178084314F834191C
:1025B000D24A5054012500E000253046FFF7C7FFFE
:1025C0002846F0BD2DE9F0470446894615464FF0F0
:1025D000000AC648007820B10F2028702046BDE8C8
:1025E000F0872078052803D0012028702046F6E7E0
:1025F00001F0A6FB8246606808B1012700E00027D1
:10260000B9F1000F03D0B9F1010F3CD119E08FB936
:10261000B8A0E06000202070B5480068606000202D
:102620002081B3480460504601F08EFB00202870E2
:10263000002605E0504601F087FB49202870264619
:1026400028E0D4F8048005E000214046FFF791FF20
:10265000D8F80080B8F1000FF6D1A6A0E060002005
:102660002070A3480068606000202081A0480460BA
:10267000504601F069FB012F01D1FFF71BFC002040
:102680002870002606E0504601F05EFB0720287007
:10269000264600BF00BF3046A1E72DE9F0410546C0
:1026A0000E46144600279148007820B11120207072
:1026B0000020BDE8F08101F043FB0746287805289B
:1026C00006D0384601F040FB012020700020F0E7E2
:1026D000E86830603068FFF7D3FD8046384601F087
:1026E00033FB002020704046E3E72DE9F04105462A
:1026F0000E46144600277D48007818B1122020703D
:10270000BDE8F08101F01CFB07462878052805D0BC
:10271000384601F019FB01202070F1E7EE603846E1
:1027200001F012FB0020207000BFE9E7F0B514466D
:10273000059E734F3F6897F8307047F02007DFF829
:10274000C0C1DCF800C08CF830700027DFF8B0C1E1
:10275000DCF800C08CF83170694F3F68FE62684F4A
:102760003F6879620C828B74654F3F688F60476861
:102770000F6000274F60C860456805B1696041601F
:102780005F4F3F6897F834205C4FBF5CDFF870C143
:10279000DCF800C09CF835C027EA0C07DFF85CC104
:1027A0000CF802706746BF5C5FB9554F3F6897F8F9
:1027B00036C0514F3F7827EA0C07DFF83CC18CF850
:1027C0000070F0BD2DE9F04F89B005460F469146E7
:1027D0009A46129E002002904448007828B10220B8
:1027E0003070002009B0BDE8F08F4648007818B17D
:1027F0000D2030700020F5E72878052803D001204F
:1028000030700020EEE709F0800BBBF1000F04D020
:1028100009F07F094FF0010801E04FF0000801F0D6
:102820008FFA0290B9F1000F4AD0B9F1010F78D0B8
:10283000B9F1020F03D0B9F1030F71D120E028895B
:1028400000EA0704BC420FD1B8F1010F02D1288978
:10285000A04328812A4800680485029801F074FA90
:10286000002030702046BDE74B463A4604A9284672
:10287000CDF800A0FFF75AFF029801F065FA78E062
:10288000288900EA07047CB1B8F1010F02D1288938
:10289000A04328811A4800680485029801F054FA80
:1028A0000020307020469DE74B463A4604A9284652
:1028B000CDF800A0FFF73AFF029801F045FA58E082
:1028C000288927EA0004BC421ED1B8F1010F02D1C9
:1028D0002889204328810A4800680485029801F06D
:1028E00033FA0020307020467CE71AE03D000020DB
:1028F0002C0000203F00000041000020420000208A
:10290000500000203E0000204B463A4604A92846CD
:10291000CDF800A0FFF70AFF029801F015FA28E0B1
:102920001FE0288927EA00047CB1B8F1010F02D129
:10293000288920432881B14800680485029801F065
:1029400003FA0020307020464CE74B463A4604A973
:102950002846CDF800A0FFF7E9FE029801F0F4F94F
:1029600007E0029801F0F0F900246F203070204653
:1029700038E700BFFFF79EFA01F0E2F902909F48A6
:10298000006890F8310020B39C48006890F831004E
:10299000039000209949096881F8310004A8FFF7E5
:1029A000D6FD00209549096881F83000029801F0B1
:1029B000CBF900240398012805D0022802D10E206B
:1029C000307003E000BF0A20307000BF00BF204617
:1029D00008E78A480068048DB8F1010F1ED1B9F1EB
:1029E000000F0ED0B9F1010F0CD0B9F1020F03D0D6
:1029F000B9F1030F0AD100E000BF2889A043288164
:102A00000BE000BF28892043288106E0029801F0EE
:102A10009BF96F2030700020E4E600BF029801F0BF
:102A200093F9002030702046DCE670B5002501F0F7
:102A300087F9054671480068048D284601F084F93D
:102A4000204670BD2DE9FC5F0446894692461E462D
:102A5000002000902078052804D00120307000204C
:102A6000BDE8FC9F01F06CF90090BAF1000F03D0B3
:102A7000BAF1010F0AD104E0208920EA090020817F
:102A80000BE0208940EA0900208106E0009801F06F
:102A90005BF9712030700020E2E700BF4FF0000BBF
:102AA000656855E0A87C40B3012838D0022802D0E0
:102AB000032844D111E02089298A00EA0107288AE5
:102AC000B84209D139462846FFF753FD8046B8F190
:102AD000010F01D14FF0010B38E02089298A00EA6B
:102AE00001074FB139462846FFF743FD8046B8F14C
:102AF000010F01D14FF0010B28E0288A218920EA3B
:102B00000107288AB84209D139462846FFF731FD26
:102B10008046B8F1010F01D14FF0010B16E0288A71
:102B2000218920EA01074FB139462846FFF721FDE8
:102B30008046B8F1010F01D14FF0010B06E000987B
:102B400001F002F96F203070002089E700BF2D6886
:102B5000002DA7D1009801F0F7F8BBF1010F01D1CA
:102B6000FFF7A8F901F0ECF8009020890190009897
:102B700001F0EAF800203070019871E72DE9F0418A
:102B800004460D4600272078052804D0012028702F
:102B90000020BDE8F08101F0D3F8074626893846C9
:102BA00001F0D2F8002028703046F2E72DE9F0411C
:102BB00050211348FFF76AF800250EE0681C86B222
:102BC0000F4800EB051400EB06170020207067602B
:102BD000AFF2E020E060681C85B2042DEED3084817
:102BE00000EB0514002020706060AFF2F820E06078
:102BF000034804490860BDE8F0810000500000204F
:102C0000A00100202C0000202DE9FC5F05460F46A6
:102C100091469A460020009001F092F800906F488B
:102C20000468006820B16D48006840686B4908601E
:102C3000009801F089F82CB95A208AF80000002089
:102C4000BDE8FC9FA8462E46781E01904FF0000B71
:102C500005E04E44C8F80060B0460BF1010B019846
:102C60008345F6D30020C8F8000025606560276121
:102C7000E760C4F808908AF800002046E0E72DE9F4
:102C8000F04104460D46002701F05AF80746206936
:102C900068B16668306860602069401E206138460F
:102CA00001F052F8002028703046BDE8F081384627
:102CB00001F04AF85D2028700020F6E72DE9F04188
:102CC00006460C46154600274548007820B11120DD
:102CD00028700020BDE8F08101F032F807467069E5
:102CE00020602068FFF7CCFA8046384601F02CF8C7
:102CF000002028704046EDE72DE9F04105460E46DC
:102D0000144600273648007818B112202070BDE81C
:102D1000F08101F015F807466E61384601F014F8AD
:102D20000020207000BFF2E770B504460D46002673
:102D300001F006F80646D4E90310884204D3304671
:102D400001F002F85E2070BD60682860656020694F
:102D5000401C2061304600F0F7FF0020F3E770B51B
:102D600005460C46002600F0EBFF0646286820606A
:102D700068686060A868A060E868E0602869206111
:102D8000304600F0E1FFD4E90301401A6061002001
:102D900070BD70B578211348FEF778FF00240EE06F
:102DA00004EB44000F4901EBC005601C00EB400040
:102DB00001EBC00068600CA06861601C84B2042C48
:102DC000EED304EB4400074901EBC0050020686026
:102DD00005A0686108460149086070BD64000020D4
:102DE0003D000020481B00203F0000002DE9F0417D
:102DF00006460D464FF000083078022804D0012026
:102E000028700020BDE8F08100F09AFF80467468C9
:102E1000E08A78B12169081D20610F68E08A401EB0
:102E2000E082A1682069884201D1606820610020A9
:102E3000287002E01F2028700027404600F084FF21
:102E40003846DFE72DE9F04106460F464FF000080F
:102E5000F748007810B10020BDE8F08100F070FF65
:102E60008046F4480568006820B1F2480068406870
:102E7000F0490860404600F067FF3DB300F060FF96
:102E80008046ED480468C4B100680068EA490860FB
:102E9000404600F059FF666006EB8700A060E660E0
:102EA0002661A7820020E08202202870002028816D
:102EB0006C602846FFF7CCF908E0DE4800686860DF
:102EC000DC480560404600F03FFF00252846C3E788
:102ED0002DE9F0470446894615464FF0000A207850
:102EE000022804D0012028702046BDE8F087D04891
:102EF000007818B10F2028702046F6E700F020FF78
:102F00008246A07A10B14FF0010801E04FF00008AE
:102F1000B9F1000F03D0B9F1010F45D11FE0B8F1AD
:102F2000000F15D16668C44800683060C24806606A
:102F300000202070BF480068606000202081BD48EC
:102F40000460504600F000FF00202870002705E0D4
:102F5000504600F0F9FE4920287027462BE005E096
:102F60000023042219462046FFF701F9A07A002821
:102F7000F6D16668B04800683060AF48066000204F
:102F80002070AC480068606000202081A94804607F
:102F9000504600F0D9FEB8F1010F01D1FEF78AFFCB
:102FA00000202870002706E0504600F0CDFE0720E4
:102FB0002870274600BF00BF384696E770B5054623
:102FC000002600F0BDFE06466C686068E060606840
:102FD00020610020E082304600F0B6FE002070BD87
:102FE0002DE9F0470746884615464FF00009387826
:102FF000022804D0012028700020BDE8F0878C480A
:10300000007818B1022028700020F6E78B4800787D
:1030100018B10D2028700020EFE700F091FE8146E6
:103020007C68E08A98B12169081D20610E68E08AF9
:10303000401EE082A1682069884201D16068206159
:10304000484600F081FE002028703046D5E77C48D5
:10305000006890F8300040F004007949096881F870
:10306000300000207649096881F831007448006812
:10307000C0F82C803846FFF7B3F8484600F064FEED
:10308000FEF718FF00F05CFE81466D48006890F87E
:10309000310020B101280DD002280AD105E068488E
:1030A0000068066A002028700DE000260E202870B7
:1030B00009E000BF394662480068FFF743F8002680
:1030C0000A20287000BF00BF00205D49096881F810
:1030D00030005B49096881F8310059490968C861C5
:1030E000574909680862484600F02EFE304684E7DA
:1030F0002DE9F04104460F4615464FF000082078B0
:10310000022804D0012028700020BDE8F08100F0E2
:1031100017FE8046A07A20B300267FB1012F0CD184
:1031200007E00223042200212046FFF720F8701C4C
:10313000C6B2A07A0028F4D109E000BF022304221D
:1031400000212046FFF713F8701CC6B200BF00BF75
:10315000404600F0F9FDFEF7ADFE0E202870304627
:10316000D3E7404600F0F0FD0020287000BFCCE718
:103170002DE9F04105460E4600272878022802D0A6
:103180000120BDE8F08100F0DBFD0746A87A60B1C0
:103190000023042231462846FEF7E9FF384600F0B6
:1031A000D3FDFEF787FE0020EBE76C68E08AA18A7A
:1031B000884204DB384600F0C7FD1E20E1E7E168E5
:1031C000081DE0600E60E08A401CE082D4E9021035
:1031D000884201D16068E060384600F0B5FD00200B
:1031E000CFE72DE9F04105460E4600272878022852
:1031F00002D00120BDE8F08100F0A2FD0746A87AC8
:1032000060B10023042231462846FEF7B0FF38465D
:1032100000F09AFDFEF74EFE0020EBE76C68E08AB6
:10322000A18A88420EDB384600F08EFD1E20E1E7C1
:103230003D00002028000020680000203E00002003
:103240005000002061682069884201D1A068206197
:103250002069001F206120690660E08A401CE0822E
:10326000384600F071FD0020C4E72DE9F041054625
:103270000F4616464FF000082878022802D0012099
:10328000BDE8F08100F05CFD8046A87AE8B106F068
:10329000010050B105E00023042239462846FEF71C
:1032A00066FFA87A0028F6D105E0002304223946FB
:1032B0002846FEF75CFF404600F046FD06F004009D
:1032C00008B9FEF7F7FD0020DAE76C68E08AA18A0A
:1032D000884204DB404600F037FD1E20D0E706F0B0
:1032E000020058B161682069884201D1A06820615C
:1032F0002069001F20612069076009E0E168081D5E
:10330000E0600F60D4E90210884201D16068E0609B
:10331000E08A401CE082404600F016FD0020AFE746
:103320002DE9F04705460C464FF0000A28780228A0
:1033300002D00120BDE8F08700F002FD8246A87AA5
:10334000207405F10B0804F10809002705E018F8BE
:10335000010B09F8010B781CC7B2082FF7D36E6870
:10336000F08A18B130690068206001E00020206018
:10337000F08AA080B08AE080504600F0E5FC002092
:10338000D8E72DE9F04160211048FEF77FFC0024CA
:103390000DE0601C86B204EB44000C4901EBC00553
:1033A00006EB460001EBC0072F60601C84B2032CC3
:1033B000EFD304EB4400054901EBC0050020286071
:1033C000084603490860BDE8F0810000C01B0020EA
:1033D000680000202DE9FF5F8146884600200090AC
:1033E00000F0AEFC0090F94850F8280030B1009889
:1033F00000F0AAFC282004B0BDE8F09FB9F1FF0F4F
:1034000003D1F348006890F83290F04850F8294012
:1034100024B9009800F098FC2920ECE7012C04D195
:10342000009800F091FC4320E5E74FEAE80708F038
:10343000070003900120B84000F0FF0A0121039823
:10344000814001F0FF0B0020E04941F829000846C7
:1034500040F8284014F8346FA07802906078343C2B
:103460000190DC48815D01980140D1B1D948805D6F
:1034700001998843D74988550846805D28B9D648C0
:10348000007802998843D4490870D348007840EA0C
:103490000A00D1490870CF48C05D40EA0B00CD4911
:1034A000C855E569D5B105F10B00805D01998843E8
:1034B00005F10B0188550846805D18B9A87A029974
:1034C0008843A872A87A40EA0A00A87205F10B00A6
:1034D000C05D40EA0B0005F10B01C85584F832804D
:1034E00084F83470039884F8330084F836A084F8A4
:1034F00035B0009800F028FCB8480078012801D1C8
:10350000FEF7D8FC002076E72DE9FE4F06460F4671
:1035100090461C464FF0000900F012FC8146B0486E
:10352000007828B1484600F00FFC3C20BDE8FE8F33
:10353000A64850F8240060BB0120A44941F82400AB
:10354000484600F001FC002342463946304600F070
:1035500056FC8246002000900190034602465146E8
:1035600002902046FEF796FE054635B99B48007846
:1035700001280CD1FEF79EFC09E000F0E1FB81463A
:103580000020924941F82400484600F0DDFB28461F
:10359000CCE7484600F0D8FB2820C7E702F001033B
:1035A00043B102F002032BB102E0491E002308C020
:1035B0000029FAD170472DE9F04F85B081468A463F
:1035C00093461C46DDE90F78129D0020039000F021
:1035D000B7FB03908248007830B1039800F0B4FB49
:1035E0003C2005B0BDE8F08F784850F8240088BB37
:1035F0000120764941F82400039800F0A5FB2A46F3
:1036000041463846FFF7CAFF2B465A4651464846C0
:1036100000F0F5FB04901198CDE9008002953A4640
:1036200020460E9B0499FEF735FE064636B96B48D8
:10363000007801280CD1FEF73DFC09E000F080FB8A
:1036400003900020614941F82400039800F07CFBBE
:103650003046C6E7FFE7039800F076FB2820C0E776
:103660002DE9F041054600275D48007810B1402063
:10367000BDE8F0813F2D01D13E20F9E700F060FB6D
:103680000746FF2D03D15248006890F832504F484A
:1036900050F8254024B9384600F056FB4320E7E7B0
:1036A000012C04D1384600F04FFB3D20E0E714F830
:1036B000340F4849085C617888432178454A505462
:1036C00014F834091146085C30B994F836104248B1
:1036D0000078884340490870E06918B12046E169E4
:1036E000FEF730FD666A16B13046FEF730FF002067
:1036F000E06284F8300084F831003A480078FF280E
:1037000004D238480078401C36490870384600F02A
:103710001BFBFEF716FD00F013FB0746314800784F
:1037200020B130480078401E2E490870204600F035
:1037300063FB2D480078401E2B4908700020234968
:1037400041F82500A06930B90020616988612749E6
:103750006069086005E0D4E905014861D4E9051015
:1037600088612348006860612148046021A0E0640A
:10377000384600F0E9FA19480078012801D1FEF72F
:1037800099FB002074E72DE9F041044600273F2C07
:1037900002D13E20BDE8F081FF2C0BD100F0D0FA21
:1037A00007460B48006890F83760384600F0CCFABE
:1037B0003046EFE700F0C4FA0746044850F82450BA
:1037C000D5B9384600F0C0FA4320E3E7F005002001
:1037D0005000002042000020410000204A0000204C
:1037E0003D0000203E0000204B0000205C00002037
:1037F000540000203F000000012D04D1384600F0A5
:10380000A3FA3D20C6E73F2085F83700384600F090
:103810009BFA0020BEE72DE9F04706460F46144606
:103820004FF00008D548007820B11120207000200A
:10383000BDE8F08700F084FA8046FF2E03D1D0481F
:10384000006890F83260CF4850F8265035B94046AD
:1038500000F07AFA432020700020E9E7012D06D11C
:10386000404600F071FA432020700020E0E7E86C49
:1038700038603868FEF704FD8146404600F064FA7F
:10388000002020704846D3E72DE9F04106460F4658
:1038900014464FF00008B948007818B11220207083
:1038A000BDE8F08100F04CFA8046FF2E03D1B44809
:1038B000006890F83260B34850F826502DB9404661
:1038C00000F042FA43202070EAE7012D05D140467E
:1038D00000F03AFA43202070E2E7EF64404600F03F
:1038E00033FA0020207000BFDAE770B505460026E5
:1038F00000F026FA0646A34850F8254024B9304681
:1039000000F022FA462070BD012C04D1304600F0B0
:103910001BFA4320F7E794F8300000F0080060B38A
:1039200014F8300F00F0F700207014F83009F8B9DF
:10393000E06AC8B93434A0789349097808439249B9
:10394000087020789149085C6178084314F83419AC
:103950008E4A5054304600F0F7F98D48007801281F
:1039600009D1FEF7A7FA06E0304600F0EDF902E0D3
:10397000304600F0E9F90020C5E7304600F0E4F9F0
:103980004420C0E72DE9F04707460D464FF0000AF6
:1039900000202860686000F0D3F98246FF2F03D131
:1039A0007748006890F83270764850F827402CB974
:1039B000504600F0C9F94320BDE8F087012C04D13E
:1039C000504600F0C1F94320F6E7207C00F00100EA
:1039D00020B9504600F0B8F94520EDE70026D4F8AC
:1039E0000C90D4F80880504600F0AEF900E0761C48
:1039F00058F8041B0029FAD02E60A9EB0600686075
:103A00000020D9E72DE9F04105464FF0000800F00D
:103A100097F98046FF2D05D15948006890F832503B
:103A2000012608E05648006890F83200A84201D10B
:103A3000012600E00026534850F825402CB94046A6
:103A400000F082F94820BDE8F081012C04D1404605
:103A500000F07AF94320F6E794F834704B48C05DE3
:103A600094F8351088434949C8550846C05D30B9B7
:103A700094F836104448007888434349087094F815
:103A8000300040F0080084F83000404600F05CF957
:103A9000012E01D1FEF70EFA0020D4E72DE9F04106
:103AA00005460E46002700F04BF90746FF2D03D1CF
:103AB0003348006890F83250324850F825402CB90D
:103AC000384600F041F92920BDE8F081012C04D1ED
:103AD000384600F039F94320F6E7542221463046B3
:103AE000FEF7C4FB384600F02FF90020ECE72DE983
:103AF000F04704460E4617464FF0000900F020F943
:103B00008146FF2C02D11E48056802E01D4850F88E
:103B1000245005F1500050F82680484600F014F972
:103B2000002038704046BDE8F0872DE9F047044694
:103B30000E46174698464FF0000900F001F98146FD
:103B4000FF2C02D10E48056802E00E4850F82450C0
:103B500005F1500040F82670484600F0F5F80020C6
:103B600088F80000BDE8F08710B50548006800F04F
:103B700040F9FF20FFF774FD10BD00003D0000205C
:103B800050000020F00500204100002042000020ED
:103B90004A00002070B5054600266248007800B152
:103BA00070BD6148007800B1FAE71DB300F0C8F8B5
:103BB00006465E48006890F834405D48005D5B4909
:103BC000096891F835108843594908550846005D41
:103BD00040B95648006890F8361056480078884337
:103BE0005449087051480068C562304600F0ACF88E
:103BF000FEF760F900BFD3E72DE9F04105460E4618
:103C000017461C464748007810B15520BDE8F081A2
:103C10004548007808B13220F8E742F2107060435E
:103C20004FF47A71B0FBF1F14FF461606843C6EB79
:103C3000061200EB8200384440F27122504301EB3F
:103C400000184046FFF7A6FF0020DFE770B50546E5
:103C500000263F2D01D32A2070BD00F071F80646E2
:103C6000354850F8254024B9304600F06DF843201F
:103C7000F2E7012C04D1304600F066F84320EBE770
:103C8000E06A20B9304600F05FF85020E4E70020F9
:103C9000E06294F8300000F0370040B114F8300FC3
:103CA00020F03700207001206070303C02E00020DE
:103CB00084F8310094F8300000F00800A8B93434DA
:103CC000A0781C49097808431A49087020781849D7
:103CD000085C6178084314F83419154A505430468A
:103CE00000F032F8FEF7E6F802E0304600F02CF87B
:103CF0000020B1E770B5002500F022F805460F4816
:103D00000468284600F020F8204670BD70B50446CF
:103D1000002500F015F8054608480460284600F024
:103D200013F870BD3D0000203E0000205000002030
:103D30004200002041000020F00500206C0000201F
:103D4000EFF3108072B6704780F3108870472048F8
:103D50004FF0FF010170002080F309881D48012108
:103D600001701D484FF08051016062B6FEE71A48AD
:103D70004FF080510160704717484FF0805101604B
:103D8000704772B6EFF3098040B1403880EC108A7A
:103D9000203880E8F00F11490968086000B5104824
:103DA00080475DF804EB0F480F490A7802700B4812
:103DB0000E490A680260106890E8F00F203090EC1D
:103DC000108A403080F309884EF0040E62B67047C6
:103DD00022ED00E04A00002004ED00E05000002049
:103DE000E13F00083F000020400000205800002074
:103DF000704770477047704770477047704770B59D
:103E0000044610460026051F28462E60051F28463A
:103E10002E604FF01536051F28462E604FF01436E1
:103E2000051F28462E604FF01336051F28462E60CA
:103E30004FF01236051F28462E604FF01136051F31
:103E400028462E604FF01036051F28462E604FF092
:103E50000936051F28462E604FF00836051F2846F4
:103E60002E604FF00736051F28462E604FF00636AD
:103E7000051F28462E604FF00536051F28462E6088
:103E80004FF00436051F28462E604FF00336051FFD
:103E900028462E604FF00236051F28462E60761009
:103EA000051F28462E600026051F28462E604FF06D
:103EB00080750560051F28462C60B61E051F284624
:103EC0002E604FF01236051F28462E604FF0033645
:103ED000051F28462E604FF00236051F28462E602B
:103EE0007610051F28462E60051F284629604FF0D2
:103EF0003136051F28462E604FF03036051F284604
:103F00002E604FF02936051F28462E604FF02836C8
:103F1000051F28462E604FF02736051F28462E60C5
:103F20004FF02636051F28462E604FF02536051F18
:103F300028462E604FF02436051F28462E604FF08D
:103F40002336051F28462E604FF02236051F2846CF
:103F50002E604FF02136051F28462E604FF0203688
:103F6000051F28462E604FF01936051F28462E6083
:103F70004FF01836051F28462E604FF01736051FE4
:103F800028462E604FF01636051F28462E604FF04B
:103F90001136051F28462E604FF01036051F2846A3
:103FA0002E604FF00936051F28462E604FF0083668
:103FB000051F28462E604FF00736051F28462E6045
:103FC0004FF00636051F28462E604FF00536051FB8
:103FD00028462E604FF00436051F28462E6070BD1F
:103FE00070477047704710B51F480068401C1E4955
:103FF0000860FFF7A5FE04461C480078401C1B49DA
:1040000008702046FFF7A0FEFEF72FF8FDF701FF2E
:1040100010BD7FB56846FCF752FC42F21072019861
:10402000B0FBF2F1481EB0F1807F00D31BE0481EC8
:104030004FF0E022506150170F22002807DA1307D3
:104040001D0E0B4B00F00F04241F1D5503E013073A
:104050001C0E084B1C5400BF00204FF0E022906162
:104060000720106100BF7FBD700000203D000020D0
:1040700018ED00E000E400E0064C074D06E0E068C3
:1040800040F0010394E8070098471034AC42F6D39F
:10409000FCF77EF8CC410008EC41000802E008C8BB
:1040A000121F08C1002AFAD170477047002001E0B2
:1040B00001C1121F002AFBD1704777413B6B4D6E47
:1040C0007E437F6F5F7C36793E1EFF00000001005B
:1040D00002000100030001000200010004000100D1
:1040E00002000100030001000200010005000100C0
:1040F00002000100030001000200010004000100B1
:10410000020001000300010002000100060001009E
:104110000200010003000100020001000400010090
:10412000020001000300010002000100050001007F
:104130000200010003000100020001000400010070
:10414000020001000300010002000100070001005D
:104150000200010003000100020001000400010050
:10416000020001000300010002000100050001003F
:104170000200010003000100020001000400010030
:10418000020001000300010002000100060001001E
:104190000200010003000100020001000400010010
:1041A00002000100030001000200010005000100FF
:1041B00002000100030001000200010004000100F0
:1041C000020001000300010002000100EC410008B0
:1041D00000000020740000009C40000860420008BD
:1041E00074000020AC1F0000AC400008000000007C
:1041F000010203040102030406070809007A030A06
:104200000000000000000000010203040607080986
:10421000000000000000000000000000000000009E
:10422000000000000000000000000000000000008E
:10423000000000000000000000000000000000007E
:10424000000000000000000000000000000000006E
:10425000000000000000000000000000000000005E
:040000050800018965
:00000001FF
